:020000040800F2
:100000000040002079050008BD050008BD05000876
:1000100000000000000000000000000000000000E0
:10002000000000000000000000000000BD05000806
:100030000000000000000000BD050008C104000829
:10004000BD050008BD050008BD050008BD05000888
:10005000BD050008BD050008BD050008BD05000878
:10006000BD050008BD050008BD050008BD05000868
:10007000BD050008BD050008BD050008BD05000858
:10008000BD050008BD050008BD050008C105000844
:10009000BD050008BD050008BD050008BD05000838
:1000A000BD050008BD050008BD050008BD05000828
:1000B000BD050008BD050008BD050008BD05000818
:1000C0005FF808F180B588B000AF78600023FB616D
:1000D0000023BB6100237B6100233B610023FB60A5
:1000E0008A4B5B680C221340FB61FB69042B0CD02C
:1000F00002D8002B05D03AE0082B0AD00C2B32D0C6
:1001000035E07B68824A1A6035E07B68804A1A6075
:1001100031E07E4B5A68F0239B031340BB617B4B5D
:100120005A68C0235B0213407B61BB699B0C02339E
:10013000BB617B69002B05D1BB69764A5A437B685A
:100140001A6018E0714BDB6A0F22134001333B61E8
:100150006F48396900F082FE031C1A1CBB695A43C0
:100160007B681A6007E07B686B4A1A6003E07B6873
:10017000674A1A60C046654B5B68F0221340FB611A
:10018000FB691B09FB61654AFB69D3181B78DBB26D
:10019000FB607B681A68FB68DA407B685A605B4BDF
:1001A0005A68E023DB001340FB61FB691B0AFB611B
:1001B0005A4AFB69D3181B78DBB2FB607B685A682C
:1001C000FB68DA407B689A60504B1A6B80235B00B7
:1001D000134003D17B68524ADA6010E04B4B5A68F7
:1001E0008023DB01134005D17B689B685A087B683C
:1001F000DA6004E07B689B689A087B68DA60434BAE
:100200001B6B4022134003D17B68464A1A6103E00E
:100210007B68802212021A613C4B1B6B1022134038
:1002200003D17B683A4A5A6103E07B681A687B68AD
:100230005A61364B1B6B0322134004D17B689A68CA
:100240007B689A611EE0314B1B6B03221340012B2C
:1002500004D17B681A687B689A6113E02B4B1B6B97
:1002600003221340022B04D17B68802212029A6180
:1002700008E0264B1B6B03221340032B02D17B6843
:10028000234A9A61214B1A6BC0239B02134004D16D
:100290007B689A687B68DA6127E01C4B1A6BC02385
:1002A0009B021A4080235B029A4204D17B681A6841
:1002B0007B68DA6119E0154B1A6BC0239B021A4068
:1002C00080239B029A4204D17B6880221202DA6169
:1002D0000BE00E4B1A6BC0239B021A40C0239B02FB
:1002E0009A4202D17B680A4ADA61084B1B6B802272
:1002F000134003D17B68084A1A6203E07B681A68DE
:100300007B681A62BD4608B080BDC046001002403E
:1003100000127A0000093D00006CDC0200000020A1
:10032000809FD5001280000080B582B000AF786059
:100330000A1CFB1C1A70FB1C1B78002B06D0084BF8
:10034000074A51697A680A435A6106E0044B044A35
:1003500052697968C9430A405A61BD4602B080BDFE
:100360000010024080B582B000AF78600A1CFB1C10
:100370001A70FB1C1B78002B06D0084B074AD1696A
:100380007A680A43DA6106E0044B044AD269796864
:10039000C9430A40DA61BD4602B080BD0010024088
:1003A000B0B582B000AF021C3960FB1D1A70FB1D96
:1003B0001B787F2B2FD92D4CFB1D1B781A1C0F236C
:1003C0001340083B9908294AFB1D1B78181C0F2372
:1003D0000340083B9B0806339B00D3185B68FA1D5B
:1003E0001278101C03220240D200101CFF2282400F
:1003F000D2431A403B689B01FF200340F81D007860
:10040000051C03202840C00083401A438B1D9B001D
:10041000E3185A6026E0164CFB1D1B785BB29B0864
:100420001349FA1D127852B29208C0329200525803
:10043000F91D0978081C03210140C900081CFF218F
:100440008140C94311403A689201FF200240F81DE3
:100450000078051C03202840C00082400A43C033B6
:100460009B001A51BD4602B0B0BDC04600ED00E091
:1004700000E100E080B582B000AF78607B680E4A92
:10048000934201D9012312E00C4B7A681202120A3E
:10049000013A5A6001235B42181C0321FFF780FFD9
:1004A000064B00229A60054B07221A600023181C95
:1004B000BD4602B080BDC046FFFFFF0010E000E077
:1004C00080B500AF034B1B685A1C024B1A60BD4637
:1004D00080BDC0462800002080B582B000AF8023D8
:1004E0009B02181C0121FFF71FFF00F0EDF8204BC5
:1004F00003221A601E4B01221A711D4B00229A71B1
:100500001B4B0022DA711A4B02225A719023DA0532
:10051000174B101C191C00F0E9F99023DB05181C7F
:1005200001211E2200F04CF9124B1B68181CFA2303
:10053000990000F093FC031C181CFFF79BFF3B1D68
:1005400000221A80FB1C01221A70FB1D00221A7067
:10055000FB1DFA1D127801214A401A709023DA051A
:10056000FB1D1B78101C02211A1C00F06DFAEFE72E
:100570002C00002014000020002103E00A4B5B58EF
:100580004350043109480A4B42189A42F6D3094AAB
:1005900002E0002313600432074B9A42F9D300F0C3
:1005A0007FFBFFF799FF7047800F000800000020D5
:1005B0002800002028000020CC000020FEE70000DA
:1005C00080B582B000AF3D4B181C012100F018FB34
:1005D000031E00D16FE0394B181C012100F050FBC5
:1005E000374B1B68282B33D800237B602CE0354920
:1005F0007A68131C5B009B189B00CB1808331B8880
:100600001A1E2F4B1B689A421BD82E497A68131C5E
:100610005B009B189B00CB181B79002B11D029493C
:100620007A68131C5B009B189B00585825497A6810
:10063000131C5B009B189B00CB18DB88191C00F077
:10064000F5F97B6801337B607B68072BCFDD2DE0FC
:100650001B4B1A68C8235B009A4227D1184B002213
:100660001A6000237B601EE016497A68131C5B0049
:100670009B189B00CB181B79002B11D011497A686D
:10068000131C5B009B189B0058580E497A68131C7A
:100690005B009B189B00CB18DB88191C00F0B8F995
:1006A0007B6801337B607B68072BDDDD044B1B68B7
:1006B0005A1C034B1A60BD4602B080BD00200040AA
:1006C000100000204400002080B582B000AF8023DD
:1006D0005B00181C0121FFF745FE314B181CFFF78A
:1006E000F1FC2F4B9B68181C2E4900F0B7FB031C34
:1006F0001A1CFA239B005343181C142100F0AEFB74
:10070000031C1A1C284B1A60284B00221A81274B05
:1007100000225A80254B00221A80244B00229A7214
:10072000214B1A68214B5A60214A204B101C191C7E
:1007300000F0A6F91E4B181C012100F0A1FA1C4B79
:10074000181C0121012200F033FA1A4B13221A70EF
:10075000184B01229A70174B01225A70154B181C26
:1007600000F028FB00237B600BE013497A68131C20
:100770005B009B189B00CB1800221A717B68013329
:100780007B607B68072BF0D90C4B00221A60084B6A
:10079000181C012100F0ECF9BD4602B080BDC04636
:1007A000A800002040420F00A400002038000020D4
:1007B00000200040340000204400002010000020F1
:1007C00080B584B000AF7860081C111CBB1C021CF3
:1007D0001A803B1C0A1C1A800B23FB1800221A707B
:1007E0000A23FB1801221A700023FB602AE03E490D
:1007F000FA68131C5B009B189B005A587B689A424E
:100800000FD13949FA68131C5B009B189B00CB1869
:10081000DB88BA1C12889A4203D10B23FB180122F1
:100820001A703149FA68131C5B009B189B00CB18A7
:100830001B79002B03D10A23FB1800221A70FB68D6
:100840000133FB60FB68072BD1D90B23FB181B7806
:10085000002B01D0FF2342E00A23FB181B78002B5A
:1008600001D0FE233BE00023FB6034E01E49FA6820
:10087000131C5B009B189B00CB181B79002B27D106
:100880001949FA68131C5B009B189B00BA1CCB1813
:100890001288DA803B1C18881349FA68131C5B0025
:1008A0009B189B00CB180833021C1A800E49FA686B
:1008B000131C5B009B189B00CB1801221A710A497C
:1008C000FA68131C5B009B189B007A685A5005E07D
:1008D000FB680133FB60FB68072BC7D900235BB2C1
:1008E000181CBD4604B080BD4400002080B586B011
:1008F00000AF7860396000237B6100233B610023F7
:10090000FB6000237B617CE07B6901229A40131C21
:100910003B613B681B683A691340FB60FA683B69BE
:100920009A426BD13B681B79012B03D03B681B7942
:10093000022B34D17B689B687A695200111C032218
:100940008A40D2431A407B689A607B689A683B6809
:100950005B79191C7B695B0099400B1C1A437B680F
:100960009A607B689B889BB27A6992B2111C0122C3
:100970008A4092B2D24392B213409AB27B689A8074
:100980007B689B889AB23B689B79191C7B699BB2F8
:1009900099400B1C9BB213439AB27B689A807B6888
:1009A0001B687A695200111C03228A40D2431A4004
:1009B0007B681A607B681A683B681B79191C7B6925
:1009C0005B0099400B1C1A437B681A607B68DB68EC
:1009D0007A6992B25200032191400A1CD2431A4014
:1009E0007B68DA607B68DA683B68DB79191C7B69B5
:1009F0005B0099400B1C1A437B68DA607B6901330A
:100A00007B617B690F2B00D87EE7BD4606B080BDB9
:100A100080B582B000AF78600A1CBB1C1A80BB1C7A
:100A20001A887B689A61BD4602B080BD80B582B0ED
:100A300000AF78600A1CBB1C1A807B68BA1C128845
:100A40001A85BD4602B080BD80B582B000AF786027
:100A5000081C111CBB1C021C1A807B1C0A1C1A706F
:100A60007B1C1B78002B04D0BB1C1A887B689A6106
:100A700003E07B68BA1C12881A85BD4602B080BDAF
:100A800080B584B000AF786039600E23FB18002277
:100A90001A800E23FB187A6812881A807B682D4A08
:100AA000934208D07A688023DB059A4203D07B68A2
:100AB000294A934210D10E23FB180E22BA1812882D
:100AC00070218A431A803B6859880E23FB180E2236
:100AD000BA1812880A431A807B68204A934210D0C1
:100AE0000E23FB180E22BA1812881D490A401A80DC
:100AF0003B6819890E23FB180E22BA1812880A4384
:100B00001A807B680E22BA1812881A803B685A68CD
:100B10007B68DA623B681A887B681A857B680D4AB5
:100B200093420BD07B680F4A934207D07B680E4AF2
:100B3000934203D07B680D4A934204D13B689B7A71
:100B40009AB27B681A867B6801229A82BD4604B0FD
:100B500080BDC046002C0140000400400010004051
:100B6000FFFCFFFF004001400044014000480140FD
:100B700080B582B000AF78600A1CFB1C1A70FB1CA9
:100B80001B78002B08D07B681B889BB20122134383
:100B90009AB27B681A8007E07B681B889BB20122AF
:100BA00093439AB27B681A80BD4602B080BDC046AE
:100BB00080B582B000AF7860081C111CBB1C021C01
:100BC0001A807B1C0A1C1A707B1C1B78002B09D016
:100BD0007B689B899AB2BB1C1B8813439AB27B68C3
:100BE0009A810AE07B689B899BB2BA1C1288D24327
:100BF00092B213409AB27B689A81BD4602B080BD22
:100C000080B584B000AF78600A1CBB1C1A800F232B
:100C1000FB1800221A700C23FB1800221A800A23EA
:100C2000FB1800221A807B681B8A9AB20C23FB18DF
:100C3000B91C09880A401A807B689B899AB20A23EA
:100C4000FB18B91C09880A401A800C23FB181B8862
:100C5000002B09D00A23FB181B88002B04D00F237C
:100C6000FB1801221A7003E00F23FB1800221A70F0
:100C70000F23FB181B78181CBD4604B080BDC0466E
:100C800080B582B000AF78600A1CBB1C1A80BB1C08
:100C90001B88DB439AB27B681A82BD4602B080BDD6
:100CA00080B500AF1B4B1B4A126801210A431A6032
:100CB000184B184A526818490A405A60154B154A91
:100CC000126816490A401A60124B124A12681449F7
:100CD0000A401A600F4B0F4A526812490A405A6084
:100CE0000C4B0C4AD26A0F218A43DA62094B094A3B
:100CF000126B0D490A401A63064B064A526B0121DA
:100D00008A435A63034B00229A6000F00FF8BD46F5
:100D100080BDC046001002400CB8FFF8FFFFF6FE91
:100D2000FFFFFBFFFFFFC0FFACFEFFFF80B500AF82
:100D30001D4B11221A601D4B1C4A52685A601B4BF6
:100D40001A4A52685A60194B184A526818490A40A0
:100D50005A60164B154A5268A02189030A435A600B
:100D6000124B124A1268802149040A431A60C04695
:100D70000E4B1A6880239B041340F9D00B4B0B4A8F
:100D8000526803218A435A60084B084A526802217C
:100D90000A435A60C046054B5B680C221340082B7F
:100DA000F9D1BD4680BDC04600200240001002407F
:100DB000FF7FC0FF80B584B000AF78600023FB6088
:100DC0007B689B78002B39D0234A7B681B789B0873
:100DD000DBB2C0339B009B58FB607B681B781A1CFE
:100DE00003231340DB00FF229A40131CDA43FB6805
:100DF0001340FB607B685B789B01FF221A407B6895
:100E00001B78191C03230B40DB009A40131CFA6863
:100E10001343FB6010497B681B789B08DBB2C0332F
:100E20009B00FA685A500C4B7A681278111C1F22EA
:100E30000A40012191400A1C1A600AE006497B68B9
:100E40001B781A1C1F23134001229A40131C802276
:100E50008B50BD4604B080BD00E100E00022430895
:100E60008B4274D303098B425FD3030A8B4244D372
:100E7000030B8B4228D3030C8B420DD3FF220902B4
:100E800012BA030C8B4202D31212090265D0030B73
:100E90008B4219D300E0090AC30B8B4201D3CB0369
:100EA000C01A5241830B8B4201D38B03C01A5241AB
:100EB000430B8B4201D34B03C01A5241030B8B42AD
:100EC00001D30B03C01A5241C30A8B4201D3CB0298
:100ED000C01A5241830A8B4201D38B02C01A52417D
:100EE000430A8B4201D34B02C01A5241030A8B4280
:100EF00001D30B02C01A5241CDD2C3098B4201D398
:100F0000CB01C01A524183098B4201D38B01C01A15
:100F1000524143098B4201D34B01C01A524103098C
:100F20008B4201D30B01C01A5241C3088B4201D33B
:100F3000CB00C01A524183088B4201D38B00C01AE8
:100F4000524143088B4201D34B00C01A5241411A0F
:100F500000D20146524110467047FFE701B500201C
:100F600000F00CF802BDC0460029F7D003B5FFF72A
:100F700075FF0EBC4243891A1847C0467047C046E9
:100F8000000000000102030401020304060708092F
:100F900090010000006CDC02000000000000000076
:080FA000010203040607080921
:0400000508000000EF
:00000001FF
